{
  "contractName": "CellContract",
  "abi": [
    {
      "constant": true,
      "inputs": [],
      "name": "seller",
      "outputs": [
        {
          "name": "",
          "type": "address"
        }
      ],
      "payable": false,
      "stateMutability": "view",
      "type": "function"
    },
    {
      "constant": true,
      "inputs": [],
      "name": "buyer",
      "outputs": [
        {
          "name": "",
          "type": "address"
        }
      ],
      "payable": false,
      "stateMutability": "view",
      "type": "function"
    },
    {
      "inputs": [
        {
          "name": "buyer_address",
          "type": "address"
        },
        {
          "name": "seller_address",
          "type": "address"
        },
        {
          "name": "cell_fee",
          "type": "uint256"
        }
      ],
      "payable": false,
      "stateMutability": "nonpayable",
      "type": "constructor"
    },
    {
      "constant": false,
      "inputs": [],
      "name": "accept",
      "outputs": [],
      "payable": false,
      "stateMutability": "nonpayable",
      "type": "function"
    },
    {
      "constant": false,
      "inputs": [],
      "name": "cancel",
      "outputs": [],
      "payable": false,
      "stateMutability": "nonpayable",
      "type": "function"
    },
    {
      "constant": false,
      "inputs": [],
      "name": "deposit",
      "outputs": [],
      "payable": true,
      "stateMutability": "payable",
      "type": "function"
    },
    {
      "constant": true,
      "inputs": [],
      "name": "kill",
      "outputs": [],
      "payable": false,
      "stateMutability": "view",
      "type": "function"
    }
  ],
  "bytecode": "0x608060405234801561001057600080fd5b506040516060806105f783398101806040528101908080519060200190929190805190602001909291908051906020019092919050505082600160006101000a81548173ffffffffffffffffffffffffffffffffffffffff021916908373ffffffffffffffffffffffffffffffffffffffff16021790555081600260006101000a81548173ffffffffffffffffffffffffffffffffffffffff021916908373ffffffffffffffffffffffffffffffffffffffff16021790555033600360006101000a81548173ffffffffffffffffffffffffffffffffffffffff021916908373ffffffffffffffffffffffffffffffffffffffff160217905550806005819055505050506104d4806101236000396000f300608060405260043610610078576000357c0100000000000000000000000000000000000000000000000000000000900463ffffffff16806308551a531461007d5780632852b71c146100d457806341c0e1b5146100eb5780637150d8ae14610102578063d0e30db014610159578063ea8a1af014610163575b600080fd5b34801561008957600080fd5b5061009261017a565b604051808273ffffffffffffffffffffffffffffffffffffffff1673ffffffffffffffffffffffffffffffffffffffff16815260200191505060405180910390f35b3480156100e057600080fd5b506100e96101a0565b005b3480156100f757600080fd5b50610100610224565b005b34801561010e57600080fd5b506101176102b7565b604051808273ffffffffffffffffffffffffffffffffffffffff1673ffffffffffffffffffffffffffffffffffffffff16815260200191505060405180910390f35b6101616102dd565b005b34801561016f57600080fd5b50610178610345565b005b600260009054906101000a900473ffffffffffffffffffffffffffffffffffffffff1681565b600360009054906101000a900473ffffffffffffffffffffffffffffffffffffffff1673ffffffffffffffffffffffffffffffffffffffff163373ffffffffffffffffffffffffffffffffffffffff16141561022257610221600260009054906101000a900473ffffffffffffffffffffffffffffffffffffffff166103d1565b5b565b600360009054906101000a900473ffffffffffffffffffffffffffffffffffffffff1673ffffffffffffffffffffffffffffffffffffffff163373ffffffffffffffffffffffffffffffffffffffff1614156102b557600260009054906101000a900473ffffffffffffffffffffffffffffffffffffffff1673ffffffffffffffffffffffffffffffffffffffff16ff5b565b600160009054906101000a900473ffffffffffffffffffffffffffffffffffffffff1681565b600160009054906101000a900473ffffffffffffffffffffffffffffffffffffffff1673ffffffffffffffffffffffffffffffffffffffff163373ffffffffffffffffffffffffffffffffffffffff161415610343573460008082825401925050819055505b565b600360009054906101000a900473ffffffffffffffffffffffffffffffffffffffff1673ffffffffffffffffffffffffffffffffffffffff163373ffffffffffffffffffffffffffffffffffffffff1614156103cf5760006005819055506103ce600160009054906101000a900473ffffffffffffffffffffffffffffffffffffffff166103d1565b5b565b600360009054906101000a900473ffffffffffffffffffffffffffffffffffffffff1673ffffffffffffffffffffffffffffffffffffffff166108fc6005549081150290604051600060405180830381858888f1935050505015801561043b573d6000803e3d6000fd5b508073ffffffffffffffffffffffffffffffffffffffff166108fc6005543073ffffffffffffffffffffffffffffffffffffffff1631039081150290604051600060405180830381858888f1935050505015801561049d573d6000803e3d6000fd5b5060008081905550505600a165627a7a72305820a38fbde1c665199cda76dab89bdc397a76889363becfbb19a918db2991641f7b0029",
  "source": "pragma solidity ^0.4.24;\ncontract CellContract {\n    uint balance;\n    address public buyer;\n    address public seller;\n    address private celloracle;\n    uint agreed_price;\n    uint fee;\n\n    constructor(address buyer_address, address seller_address, uint cell_fee) public {\n        // this is the constructor function that runs ONCE upon initialization\n        buyer = buyer_address;\n        seller = seller_address;\n        celloracle = msg.sender;\n        fee = cell_fee;\n    }\n\n    /*\n        This method is called when celloracle detects the ticket has been uploaded\n    */\n    function accept() public {\n        if (msg.sender == celloracle){\n            payBalance(seller);\n        }\n    }\n\n    /*\n        This method is called when celloracle detects a fraudulent transaction for the sell\n    */\n    function cancel() public {\n        if (msg.sender == celloracle){\n            fee = 0;\n            payBalance(buyer);\n        }\n    }\n\n    /*\n        Transfers the balance to a given address keeping a 1% fee for Cell\n    */\n    function payBalance(address participant) private {\n        celloracle.transfer(fee);\n        participant.transfer(address(this).balance - fee);\n        balance = 0;\n    }\n\n    /*\n        Tops up the contract with a given amount\n    */\n    function deposit() public payable {\n        if (msg.sender == buyer) {\n            balance += msg.value;\n        }\n    }\n\n    function kill() public constant {\n        if (msg.sender == celloracle) {\n            selfdestruct(seller);\n        }\n    }\n}",
  "sourcePath": "/Users/Emilio/IdeaProjects/demo/src/main/resources/solidity/contracts/CellContract.sol",
  "compiler": {
    "name": "solc",
    "version": "0.4.24+commit.e67f0147.Emscripten.clang"
  },
  "schemaVersion": "2.0.1",
  "updatedAt": "2018-10-07T10:59:19.224Z"
}